:100000000C94CC010C9413020C9413020C943A0C33
:100010000C9413020C9413020C9413020C9413020C
:100020000C9413020C9413020C94FC1C0C94CE1D23
:100030000C9492180C9413020C9413020C94130257
:100040000C9413020C9413020C9413020C941302DC
:100050000C9413020C94EB180C9413020C941302DE
:100060000C9413020C9413020C9413020C941302BC
:100070000C9413020C9413020C9413020C941302AC
:100080000C9413020C9413020C9413020C9413029C
:100090000C9413020C9413020C9413020C9413028C
:1000A0000C9413020C9413020C941302450F450F89
:1000B000770F770FCD10CD10CD10CD10C40F5D1080
:1000C0006E106E1061116111731173116A11731149
:1000D00073117311611161116F11731173116F112C
:1000E0003B1E621E5A1F621E5A1FAE1ED11E5A1F91
:1000F000281F371F29001E001F002000210022009A
:100100002B0014001A00080015001700E10004007D
:100110001600070009000A00E0001D001B00060091
:10012000190005000000E200E30001512C002F003F
:100130002D00270026002500240023002A0013009C
:1001400012000C0018001C00340033000F000E00D9
:100150000D000B00E50038003700360010001100DC
:100160000000E70035000251280030003A003B0053
:100170003C003D003E003F0035001E021F022002F1
:1001800021022202290001000100010001000100FA
:10019000AA00A800A900AC00AE00AB00000001005E
:1001A0000100010001002602450044004300420016
:1001B00041004000350227022602250224022302C4
:1001C00001000100010001000100010031020000F6
:1001D00067002E022D002D020000010001000351D6
:1001E00001002702350201000100010001000100A9
:1001F00035001E001F002000210022003A003B00B5
:100200003C003D003E003F004000410042004300F2
:1002100044004500000001000100035101000100FD
:1002200001000100010001000100010001002700A0
:10023000260025002400230000004F00520051003A
:1002400050000000310030002F002E002D002E0243
:100250000000010001000100010001000000000099
:10026000000000000000000000000000000000008E
:10027000000000000000000000000000000000007E
:10028000000000000000000000000000000001006D
:10029000010001000100000000000000000000005B
:1002A000000000000000000000000000000000004E
:1002B000000000000000000000000000000000003E
:1002C000000000000000000000000100010001002B
:1002D0000100000000AE00AF00DA02818FD9F1DB2F
:1002E00040A4A62EAF00A0C000A1C800AED580A833
:1002F0001FD300408D1420000403300000000E03C3
:100300004C0069006C0079003500380000001003D3
:100310006C0069006C00690075006D0073000000DE
:100320000403090409022200010100A0FA090400E3
:100330000001030101000921110100012240000711
:1003400005810308000A1201100100000008D8040A
:100350002DEB00010102030105010906A1010507BA
:1003600019E029E71500250195087501810295011D
:10037000750881010507190029FF150026FF009562
:100380000675088100050819012905950575019173
:1003900002950175039101C011241FBECFEFDAE071
:1003A000DEBFCDBF04B603FE27C08091310490911B
:1003B0003204A0913304B09134048730904BA740AD
:1003C000B04BD1F4109231041092320410923304E5
:1003D0001092340414BE84B7877F84BF0FB6F8949C
:1003E000A895809160008861809360001092600001
:1003F0000FBEE0E0F8E3099511E0A0E0B1E0E0EB2A
:10040000FFE302C005900D92A633B107D9F724E0AF
:10041000A6E3B1E001C01D92A133B207E1F70E944B
:100420004D1A0C94D61F0C9400000C94190281E014
:10043000089581E0089508950C941B021F93CF93B3
:10044000DF9300D000D01F92CDB7DEB749835A8327
:100450006B833091800189819A81311114C06623A8
:1004600059F0222349F00E942216182F682F898103
:100470009A810E94C91503C00E94F515182F698141
:100480007A81812F04C00E94221669817A810F909F
:100490000F900F900F900F90DF91CF911F910C94C0
:1004A000CC02FC01262F40815181628173818481BD
:1004B0000C941E02CF93DF93EC0160E00E94510286
:1004C000BE01DF91CF910C941C020E94471781114D
:1004D00002C00E94E7170C94A6040C94A20408958D
:1004E0000C946F0281E008950C947202CF93C82F90
:1004F0000E9470028C2F0E947402CF91089508957B
:100500000E944F110E947F022FEF84E39CE0215054
:1005100080409040E1F700C000000C9411190F9347
:100520001F93CF93DF93EC0161E00E9451028C0195
:10053000BE010E941502882349F1BE01C8010E9434
:10054000F508882319F1BE01C8010E9447098823D4
:10055000E9F0BE01C8010E94720A8823B9F08A81BD
:10056000882369F001158CE5180731F00E3D1C4514
:1005700031F40E94E7170AC00E94800207C0CE0132
:10058000DF91CF911F910F910C94170280E0DF91C2
:10059000CF911F910F9108952CE3829FC0011124E8
:1005A000FC0126E0729FE00DF11D1124E60FF11D04
:1005B000EE0FFF1FEC50FF4F859194910895CF935C
:1005C000DF930E94CC020E94BD03EC01811523E55C
:1005D000920798F5811542E5940708F094C0C1157B
:1005E00080E2D807C0F4C11521E0D20708F0C1C0ED
:1005F000C53AD10548F4C430D10508F0BAC0C130BD
:10060000D10509F4B6C0B3C0CE01805E9109089748
:1006100008F4AFC0ACC0C11541E5D40708F06EC006
:10062000C11580E5D80708F04DC0C11520E4D207F8
:1006300008F49DC0DF70D06A9CC0811546E5940720
:1006400000F5C11585E5D80708F077C0C11524E588
:10065000D20708F06DC0CE018370992721E030E009
:1006600002C0220F331F8A95E2F78C2F869586955C
:1006700040E2849FC0011124E901C82BD92BDA681C
:1006800078C081154AE5940778F4C11589E5D80743
:1006900008F05DC0C11528E5D20708F468C0DC2F5A
:1006A000CC27C06FD06A65C090568115904208F083
:1006B0005EC08D2F8F710E945104DD27D0628F7133
:1006C000D82B57C0CE0174E0969587957A95E1F7BF
:1006D00083709C2F937021E030E002C0220F331F03
:1006E0009A95E2F73C68382BCF70C695C69580E2A4
:1006F000C89FE0011124C22BD32B3BC0DC2FCC2799
:10070000C16FD06A36C08370992721E030E002C003
:10071000220F331F8A95E2F78C2F8695869540E24B
:10072000849FC0011124E901C82BD92BDC6821C0AA
:10073000DC2FCC27C46FD06A1CC08C2F0E945104C0
:100740008F71C82FD0E0DC2FCC27D06212C08C2F45
:100750008F700E94510494E0D695C7959A95E1F761
:10076000CF70D0E0DC2FCC27D069C82B02C0C0E00E
:10077000D0E0CE01DF91CF9108958238910569F1E3
:10078000B0F48133910509F46DC048F489329105C4
:1007900009F463C08A32910509F469C0089585336C
:1007A000910509F455C089339105B9F00895833E48
:1007B000910569F138F4803E9105B1F0823E9105D2
:1007C00009F10895863E9105A9F1873E9105B9F199
:1007D000843E910509F064C023C02091220420FDCD
:1007E0004FC021FD4DC008958091220480FD44C07A
:1007F0008091230480FF44C08091220484FD42C084
:1008000083EE4DC08091220482FF38C0F5CF8091E5
:10081000220482FD33C08091230480FD31C0ECCFDF
:100820008091230481FF32C08091220484FD2AC07C
:1008300087EE35C08091220483FF26C0F5CF8091DA
:10084000220483FD21C08091230481FD1FC0ECCFD1
:100850008091220485FD1CC01DC08091220485FD6D
:1008600019C016C08091220486FD16C017C0809161
:10087000220486FD13C010C089E311C082EE0FC0B0
:1008800080EE0DC080E00BC086EE09C084EE07C08C
:1008900089E205C085E303C08AE201C081E390E0FC
:1008A00008959091220492FF0DC0282F28712830BE
:1008B00019F4877F846006C0282F2471243011F436
:1008C0008B7F886093FF0DC0282F2871283119F481
:1008D000877E846106C0282F2471243111F48B7E19
:1008E00088612091230420FF0DC0382F38713830E3
:1008F00019F4877F816006C0382F3171313011F4CF
:100900008E7F886021FF0DC0282F2871283119F4AF
:10091000877E816106C0282F2171213111F48E7EDE
:10092000886194FD877E0895E82FF0E0E45FFD4F35
:1009300080810895089580EA8A95F1F708950895D1
:100940000C949F040C94A0040C949F040C94A40495
:100950000895CF93DF930E94190680910001809142
:100960000001811102C095E001C090E09093170250
:1009700085E0891B80931602A3E2B1E048E251E0D2
:1009800061E070E08D91E82FE295EF70F0E021A139
:100990008F70EB0102C0CC0FDD1F8A95E2F7CE010C
:1009A0009C2F9095922391A392A1892B82A34A1701
:1009B0005B0741F7ADE1B1E043E251E061E070E097
:1009C0008D91E82FE295EF70F0E021A18F70EB019F
:1009D00002C0CC0FDD1F8A95E2F7CE019C2F9095C7
:1009E000922391A392A1892B82A34A175B0741F717
:1009F000E2E0F2E0ACE0B2E08CE092E011921D9215
:100A00008E179F07D9F785E00E94C3050E946502F3
:100A1000DF91CF910C9423060E94FA05882309F1F7
:100A20008091160290E0845F9D4F0E9436068111EE
:100A300014C0809136018F5F80933601863078F044
:100A4000E0911602F0E0E45FFD4F80E090E011924B
:100A5000019685309105D9F702C0109236010C94A9
:100A60006D028091170290E0845F9D4F0E945306B3
:100A70000C94A8046F927F928F929F92AF92BF9234
:100A8000CF92DF92EF92FF920F931F93CF93DF935A
:100A900083E2882E81E0982E02E012E097E0A92EF2
:100AA00092E0B92E712CCC24C394D12CF401819105
:100AB0004F01C82FC295CF70D0E099A18F707601F9
:100AC00001C0EE0C8A95EAF7892F8E2989A38AA1A5
:100AD0006E2C609486218AA30E949B04EDE1F1E0D4
:100AE00040E050E020E03191A32FA295AF70B0E03C
:100AF00090968C9190E03F7002C0959587953A95BD
:100B0000E2F780FD07C08C2D042E01C0880F0A94E7
:100B1000EAF701C080E0282B4F5F5F4F4630510558
:100B200011F789A1682269A28AA1E82AEAA2F8013C
:100B30008081281719F0208381E001C080E0782AA5
:100B40000F5F1F4FA016B10609F0B0CF60911702DA
:100B500070E0645F7D4F272D45E082E092E00E94C7
:100B6000C4050E940C05872DDF91CF911F910F9135
:100B7000FF90EF90DF90CF90BF90AF909F908F90BD
:100B80007F906F9008950895FF920F931F93CF93D6
:100B9000DF938C01F62ED72FC42F222349F081E05A
:100BA000809339010E94C4189093380180933701D3
:100BB000809139018823C1F08091370190913801EB
:100BC0000E94DC18069780F0EF2DFD2FD8014C2FE6
:100BD00050E0CD01801B910B841795071CF48D917B
:100BE0008193F7CF10923901DF91CF911F910F912F
:100BF000FF90089580913A01811112C08091D80030
:100C000080618093D8008AE18A95F1F700C08091D5
:100C1000D90080FD02C082E001C081E080933A01EA
:100C200081E090913A01913009F080E008950C94B0
:100C3000FA050E941706809300010E94FA058111AF
:100C40000C942A0608950E94FA05811102C00C94A2
:100C50003006089561E070E081E091E00C94E80BCB
:100C600061E070E081E091E00C94F10BCF93DF93B1
:100C7000D82FC92F80E090E00E94CA0C892B79F40C
:100C8000ED2FFC2F80E090E0DC01A45CBE4F2C91A6
:100C90002193019685309105B9F781E001C080E08C
:100CA000DF91CF91089520E030E0FC014191CF0128
:100CB000F901E45CFE4F40832F5F3F4F2530310543
:100CC000A1F70895EF92FF920F931F93CF93DF93B5
:100CD000EC017B0164E670E088E70E94A90A8C01C0
:100CE000EC0EFD1ECE15DF0561F017FD0AC0FE01FA
:100CF000849164E670E00E94000B8C012196892BA0
:100D000089F30E94840BC801DF91CF911F910F914D
:100D1000FF90EF9008950895E8E1F2E080E092E01E
:100D2000DF019C011D9221503040E1F7F0931D043A
:100D3000E0931C048FEF9FEF90936701809366010F
:100D400008950E948B068093620180FD02C080E8B6
:100D500001C080E2809361010E94A30A6DE070E00F
:100D60008BEE92E00E946206892B11F080E00895DC
:100D70008091620163E070E081FD03C088EE92E043
:100D800002C085EE92E00E946206892B79F76DE041
:100D900070E088ED92E00E946206892B39F70E948C
:100DA000D018DC01CB01805A9541AF4FBF4F8093E3
:100DB000180490931904A0931A04B0931B040E9482
:100DC0008C0681E080936501809364011092630139
:100DD00008952091610136E0839FC0011124629F34
:100DE000800D911D1124811522E0920714F080E0FE
:100DF00090E0885E9D4F90931D0480931C0408959D
:100E00000E94D018DC01CB01805A9541AF4FBF4FF3
:100E10008093180490931904A0931A04B0931B04B0
:100E20008091640181110BC062E070E086ED92E078
:100E30000E946206892B19F481E0809364018091FD
:100E4000640108956F927F928F929F92AF92BF92AA
:100E5000CF92DF92EF92FF920F931F93CF93DF9386
:100E600020916601309167012115310509F4D4C044
:100E7000809163018111D0C061E070E0082F10E023
:100E80003B01082E02C0660C771C0A94E2F7A90108
:100E900046215721452B11F48F5FF0CF90916201CD
:100EA000980165E0220F331F6A95E1F790FD12C0AB
:100EB0008295880F807680930B01220F232F221FAB
:100EC000330B319520930E01815E80930C011092BB
:100ED0000F0112C045E0369527954A95E1F7220F9C
:100EE000220F220F20930B0110920E01295F2093F5
:100EF0000C0183E080930F0124E630E047E050E0EE
:100F000069E071E088E70E94300B892B09F084C00A
:100F10008091620180FD23C0A80195E0440F551F18
:100F20009A95E1F7485E5D4F04E610E020E230E07C
:100F300060E488E70E94570B892B09F06DC00E947E
:100F40000007E301C095D0958091660190916701FB
:100F5000C823D923D0936701C09366015DC080E2A6
:100F6000E1E4F1E0DF011D928A95E9F785E0000FE9
:100F7000111F8A95E1F7A1E3B1E04DE251E0992418
:100F800093942D91EA018991AE01B801680F711D0A
:100F9000685E7D4F30E02F5B3E4FF90197E07F01A7
:100FA000E21AF30AA92C01C0AA0CEA94EAF77B0121
:100FB000B12CE70189917E018A21892E8B18D82DC9
:100FC000D770CD2E0D2E000CDD08C82F01C0CC0F20
:100FD000DA95EAF7D194C194D108D7E0CD22DD2487
:100FE00001C08695CA94EAF78C2BD0808D29808326
:100FF000B39488E0B812DDCF915031969F3F79F6D7
:10100000C1E0A533BC0709F0BCCF04E610E020E244
:1010100030E041E451E08CCFDF91CF911F910F91EF
:10102000FF90EF90DF90CF90BF90AF909F908F9008
:101030007F906F90089580916401882369F062E049
:1010400070E084ED92E00E946206892B19F0809195
:1010500064010895109264019091640181E08927F0
:10106000089508950F931F9380916501882311F1CE
:1010700060E080E00E94E9060E9431080E94220799
:10108000809164018823B1F00E94D0180091180467
:101090001091190420911A0430911B04DC01CB013A
:1010A000801B910BA20BB30BB7FD04C01F910F91D6
:1010B0000C941B081F910F910895AF92BF92CF928D
:1010C000DF92EF92FF920F931F93CF93DF937C01F8
:1010D0005B01C42FD22FFC0182818823F9F0409359
:1010E0006A010E94C418909369018093680180E2AC
:1010F0008C0F883008F06EC0C77081E001C0880F87
:10110000CA95EAF7DF91CF911F910F91FF90EF9071
:10111000DF90CF90BF90AF900C94FD0E80916A014C
:10112000481335C080916801909169010E94DC18D4
:101130006C01B701C5010E940814C816D90638F51C
:1011400010E21D0FCD17B9F080E28C0F883040F40B
:10115000C77081E001C0880FCA95EAF70E94040FAA
:10116000183058F581E09D2F977001C0880F9A952F
:10117000EAF70E94FD0E802F0E94EA0E183050F50B
:10118000D77081E001C0880FDA95EAF70AC080E2E3
:101190008C0F8830F8F4C77081E001C0880FCA95C1
:1011A000EAF7DF91CF911F910F91FF90EF90DF90C1
:1011B000CF90BF90AF900C94040F802FDF91CF9110
:1011C0001F910F91FF90EF90DF90CF90BF90AF9065
:1011D0000C94EA0EDF91CF911F910F91FF90EF9049
:1011E000DF90CF90BF90AF9008950F939C01CB01FB
:1011F000233F4CE5340731F188F4283DFCE53F07F7
:10120000D9F0293D4CE5340779F1273D3C45A9F556
:1012100006E221EE41EE67ED7CE52BC0253FFCE5C3
:101220003F07E1F0A8F0263F3C4539F507E225EEFF
:1012300046EE66EF7CE51DC007E225EE45EE68ED63
:101240007CE517C006E221EE40EE63EF7CE511C0BD
:1012500007E225EE44EE64EF7CE50BC006E221EEEA
:1012600042EE65EF7CE505C008E221E045EE69ED60
:101270007CE50E945D0880E008C0FC018281882333
:1012800019F010926A0101C081E00F910895CF9387
:10129000DF93EC01FB018281882309F41FC1C23076
:1012A000FCE5DF0708F41BC1C6319CE5D90738F01F
:1012B0009E012A5F3C452930310508F010C10E948B
:1012C0005A179093230480932204C031ECE5DE0783
:1012D00009F4C3C008F041C0C8308CE5D80709F450
:1012E0009AC0F0F4C430ECE5DE0709F487C068F476
:1012F000C2308CE5D80709F477C0C330DC4509F06B
:10130000E3C080912204826076C0C630ECE5DE073F
:1013100009F46EC008F07BC08091220488606BC025
:10132000CC308CE5D80709F485C068F4CA30ECE508
:10133000DE0709F474C008F079C00E944F11809153
:101340002204806858C0CE308CE5D80709F476C0F6
:1013500008F07FC0809122048BC0CB3FECE5DE0714
:1013600009F44FC018F5C3318CE5D80709F47DC0E6
:1013700078F4C131ECE5DE0709F473C0C231DC4515
:1013800009F0A2C00E944F11809122048F7733C0D0
:10139000C5318CE5D80709F472C008F486C0CA3F8D
:1013A000DC4509F091C0809123043EC0CF3FFCE5AD
:1013B000DF0709F45FC058F4CD3F9CE5D90709F475
:1013C00044C008F43FC08091230482602DC0C13026
:1013D000FDE5DF0709F475C008F45DC0C230DD45E6
:1013E00009F072C080E06EC080912204816003C069
:1013F0008091220480618093220466C0809122043F
:1014000011C0809123048260809323045DC0809189
:1014100022048062F0CF809122048064ECCF80911E
:10142000220488608460E7CF8160EECF809122043F
:101430008E7FE1CF809122048D7FDDCF80912204C9
:10144000877FD9CF8091230418C0809123048D7F9A
:10145000DBCF809122048F7ECECF809122048F7DBE
:10146000CACF809122048F7BC6CF80912204877FD0
:101470008B7FC1CF809123048D7F8E7FC5CF8091DC
:10148000220482FB222720F991E0922790FB82F927
:1014900090FB83F9B0CF80912304982F90959170A1
:1014A0008E7F892B90FB81F9AFCF0E944F118091E5
:1014B000220487FB222720F991E0922790FB87F9ED
:1014C0009ACF81E00E94E917809122049091230431
:1014D0000E946B170E944F1180E001C081E0DF91F4
:1014E000CF910895CF93DF9386319C4541F5EB0171
:1014F0000E94A316982F8A8120911001309111012A
:10150000882379F09A7A81E009F480E080936B0176
:10151000911102C069E201C065E3C9010E9430185F
:101520000AC080916B01811102C069E201C065E3CC
:10153000C9010E9432180E94E41680E001C081E0D7
:10154000DF91CF9108951092B9008CE08093B8009C
:101550000895EF92FF920F931F93CF93DF93182F6D
:10156000EB011092BC0084EA8093BC000E94C41876
:101570007C018091BC0087FD0EC0CF3F8FEFD80764
:10158000C1F30E94C4188E199F098C179D0788F318
:101590008EEF9FEF2EC08091B900887F883041F098
:1015A0008091B900887F803119F08FEF9FEF21C0C3
:1015B0001093BB0084E88093BC000E94C4188C0187
:1015C0008091BC0087FD0CC0CF3F8FEFD807C1F3DF
:1015D0000E94C418801B910B8C179D0788F3D8CFED
:1015E0008091B900887F883111F08034F1F680E075
:1015F00090E0DF91CF911F910F91FF90EF900895B0
:101600000F931F93CF93DF93EB018093BB0084E88C
:101610008093BC000E94C4188C018091BC0087FD9F
:101620000EC0CF3F8FEFD807C1F30E94C418801BB4
:10163000910B8C179D0788F38EEF9FEF0CC02091C4
:10164000B900287F81E090E0283211F480E090E03A
:10165000919581959109DF91CF911F910F910895F7
:10166000CF92DF92EF92FF920F931F93CF93DF936E
:101670006B018A017901B9010E94A90AE6010C0DEA
:101680001D1DC017D10761F424E92093BC00DF9130
:10169000CF911F910F91FF90EF90DF90CF90089521
:1016A00097FDF2CFB70189910E94000BEACFCF924C
:1016B000DF92EF92FF920F931F93CF93DF93C62F8A
:1016C0006A017901B8010E94A90A97FD11C0B80109
:1016D0008C2F0E94000BE601EC0CFD1CCE15DF05E3
:1016E00039F097FD05C0B80189910E94000BF6CF33
:1016F00024E92093BC00DF91CF911F910F91FF90BF
:10170000EF90DF90CF90089584E98093BC00089516
:101710008EE14A9B02C08150E1F74A9BFECF0895BB
:101720005A9880E28A95F1F75A9A0895FC012AE0C6
:101730002A95F1F790E020E080E031E0261779F07B
:1017400040E14A95F1F7880F4A9B02C081609327D8
:1017500000C0000040E14A95F1F72F5FEFCF20E194
:101760002A95F1F729B100C0000030E13A95F1F770
:1017700022FB222720F992272081920F908308953F
:10178000EF92FF920F931F93CF93DF931F92CDB7EA
:10179000DEB719828C017C01E60EF11C0E151F05C7
:1017A00059F00E94880B68E0CE0101960E94960BCA
:1017B000F80181938F01F2CF81E09981911180E04E
:1017C0000F90DF91CF911F910F91FF90EF900895AF
:1017D00090936E0180936D0160936C01529A5A9AB6
:1017E000089590936E0180936D0160936C015298FF
:1017F0005A9AEA9AE9E6F0E080818F7C8083089526
:10180000615091E001C0990F6A95EAF720E031E05C
:10181000992361F0492F482319F05A9A232701C0D0
:101820005A9840E24A95F1F79695F2CF222311F0AB
:101830005A9A01C05A9880E28A95F1F75A98089509
:10184000FF920F931F93CF93DF93EC018C01060F50
:10185000111DC017D10741F0F9900E94900B68E06C
:101860008F2D0E94000CF5CFDF91CF911F910F912A
:10187000FF9008951F920F920FB60F9211240F93AD
:101880001F932F933F934F935F936F937F938F9308
:101890009F93AF93BF93EF93FF93CF93DF931F92E9
:1018A000CDB7DEB719820E94880B67E0CE010196A2
:1018B0000E94960B382F369536953695932F969530
:1018C0009570232F2570920F292F2370969596954A
:1018D0008770920F891348C08981811145C080911A
:1018E0006C01831708F440C080E18A95F1F75A9A99
:1018F000529AA2E0AA95F1F700C000916D011091F3
:101900006E01B8E03B9F000D111D11245A98F8019B
:101910006581662321F0868197810E94200C0E94B8
:10192000900BF0E1FA95F1F75A9852985A9A80E1A3
:101930008A95F1F7D80112966C911297662369F097
:1019400013968D919C9114970E94C00BD801ED9134
:10195000FC91811105C082E004C0D801ED91FC9199
:1019600088E080830E94880B0F90DF91CF91FF91D8
:10197000EF91BF91AF919F918F917F916F915F9107
:101980004F913F912F911F910F910F900FBE0F908C
:101990001F9018950F931F93CF93DF9320916C01A5
:1019A00030E0281739070CF471C09C0193E0220F36
:1019B000331F9A95E1F7C0916D01D0916E01C20F6E
:1019C000D31FF894529A5A9845E04A95F1F70000CF
:1019D000982F969595708570890F982F937086959E
:1019E0008695890F8901082B0E94900B84E08A95C7
:1019F000F1F700C067E0802F0E94000C40E14A959B
:101A0000F1F752985A9A4A9902C000C0FCCF87E079
:101A100090E04A9B0EC0019751F4529A5A9AE8817D
:101A2000F98181E08083789481E090E031C000C04A
:101A3000F0CF6D81662381F08E819F810E94C00B63
:101A400081110AC0529A5A9AE881F98182E0808312
:101A5000789482E090E01CC00E94880B80E28A9516
:101A6000F1F75A98529A40E14A95F1F76A81662354
:101A700021F08B819C810E94200C0E94900BE881B8
:101A8000F9811082789480E090E002C084E090E0D8
:101A9000DF91CF911F910F910895909374018093DE
:101AA00073010895E0917301F0917401309721F072
:101AB0000190F081E02D099480E00895E091730198
:101AC000F0917401309721F00280F381E02D0994A8
:101AD000089520917101309172012817390771F032
:101AE0009093720180937101E0917301F091740100
:101AF000309721F00680F781E02D09940895209118
:101B00006F01309170012817390771F090937001BF
:101B100080936F01E0917301F0917401309721F08F
:101B20000084F185E02D0994089585B7806885BF0C
:101B300085B7806885BF089508950C949C0D0C941A
:101B40009D0D0C949C0D0C949C0D0E94950D0E9473
:101B5000A10D0C949F0D0C94FA050E94BB180E94D5
:101B6000A90480E00E94A1060E9422190C94A30DF2
:101B70009F92AF92BF92CF92DF92EF92FF920F931C
:101B80001F93CF93DF93CDB7DEB72A970FB6F894A4
:101B9000DEBF0FBECDBF0E943A05C82E0E94AB0D1E
:101BA000811111C08FEF89838A831B820E94C41820
:101BB0008160782F9D838C8349815A816B818D81CF
:101BC0000E94570E40C086E7A82E81E0B82E00E0A4
:101BD00010E0902E802F0E949404E82EF501D19001
:101BE0005F01D82631F40F5F1F4F0A30110589F7C6
:101BF000D9CF8091F60181FD0E949A0480E0FF24F4
:101C0000F3949D2D9F21D1F08E839F82EF2081E060
:101C100009F480E088870E94C4188160782F9A8731
:101C200089874E815F8168858A850E94570EF801F9
:101C3000EA58FE4F8081F826F08205C08F5FFF0CC6
:101C40008630F9F6D0CF0E943208C1100E940007FA
:101C50000E94520D909175018917B9F00E94520DA2
:101C6000809375012A960FB6F894DEBF0FBECDBFE4
:101C7000DF91CF911F910F91FF90EF90DF90CF9068
:101C8000BF90AF909F900C9476022A960FB6F8946E
:101C9000DEBF0FBECDBFDF91CF911F910F91FF909F
:101CA000EF90DF90CF90BF90AF909F900895CF932B
:101CB000DF93CDB7DEB72B970FB6F894DEBF0FBE1C
:101CC000CDBF4F83588769877A878B87DE0111964E
:101CD00086E0FD0111928A95E9F785E0FE013796CD
:101CE00001900D928A95E1F749815A816B817C813F
:101CF0008D819E810E940B142B960FB6F894DEBF47
:101D00000FBECDBFDF91CF910895FC0180819181FD
:101D10000E9464160895CF93882371F1C82F8CEF29
:101D20008C0F813AD0F46C2F8091100190911101A9
:101D30000E94FA17882349F06C2F8091100190912E
:101D400011010E9432180E94E4166C2F809110013C
:101D5000909111010E9430180CC080E28C0F8830E5
:101D600058F4C77081E001C0880FCA95EAF70E9455
:101D7000A616CF910C94E416CF910895882349F1CB
:101D8000682F8CEF860F813A38F480911001909182
:101D900011010E9432180CC080E2860F883050F486
:101DA000677081E001C0880F6A95EAF70E94AC165F
:101DB0000C94E4168BE5860F833020F480E090E0ED
:101DC0000C94690D685A673120F480E090E00C941F
:101DD0007F0D0895CF93C82F0E948B0EC93349F40D
:101DE0002FEF87EE93E0215080409040E1F700C054
:101DF00000008C2FCF910C94BE0E882321F00E94FE
:101E0000A6160C94E4160895882321F00E94AC16BF
:101E10000C94E4160895CF92DF92EF92FF920F9305
:101E20001F93CF93DF937C01D62FC72FFC01158121
:101E300012951F70028101110E94C3160E949C1608
:101E4000882399F0002389F08C2F807F803421F043
:101E500080E28D0F883048F082E00E942E170E94A9
:101E60009C1691E0D82ED92601C0D12CCC2EC2943C
:101E70008FE0C8228C2D90E08C30910508F08DC148
:101E8000FC01EA5AFF4F0C948E1F8C2F807FCF707D
:101E9000882311F0C295C07F002399F0CC2309F468
:101EA00068C180E28D0F883010F0D11104C08C2FF2
:101EB0000E94A61603C08C2F0E94B6160E94E4163C
:101EC00058C18D2F0E94BE0ECC2309F466C180E25A
:101ED0008D0F883010F0D11104C08C2F0E94AC16E9
:101EE00003C08C2F0E94BC160E94E41656C18C2F92
:101EF000807FCF70803211F0C295C07FDD2319F052
:101F0000D130C9F022C0002371F0112341F011300B
:101F100031F40E94C9168C2B0E94D1163EC10E943A
:101F2000C9168C2B1DC0112319F0113009F435C1CD
:101F30000E94DA1625C0002321F0163008F02DC1CA
:101F40000EC0153008F029C11BC0002361F0112319
:101F500031F0F701858180FF0CC18F7085838C2F54
:101F60000E94FD0E1AC1112359F0D93309F012C194
:101F7000FFEF07EE13E0F15000401040E1F708C119
:101F80008C2F0E94040F09C18C2F837009F047C069
:101F9000011107C12D2F229526952770220F220FA0
:101FA0006D2F6F70862F90E0A0E0B0E0022E04C08D
:101FB000880F991FAA1FBB1F0A94D2F7D4FF10C025
:101FC0004FE050E060E070E004C0440F551F661F12
:101FD000771F2A95D2F7409550956095709503C06C
:101FE00040E050E0BA01C695C695C3708A019B01D6
:101FF000082B192B2A2B3B2BC901B801C23049F001
:1020000058F4C13019F00E94DF14CBC00E94CD14E7
:10201000C8C00E94F114C5C00E94CB14C2C00023E6
:1020200019F08C2F817001C08695882309F4B9C0FE
:102030002D2F229526952770220F220F6D2F6F705E
:10204000862F90E0A0E0B0E0022E04C0880F991F18
:10205000AA1FBB1F0A94D2F7D4FF10C04FE050E074
:1020600060E070E004C0440F551F661F771F2A957B
:10207000D2F7409550956095709503C040E050E0D0
:10208000BA01C695C695C3708A019B01082B192B0E
:102090002A2B3B2BC901B801C23049F058F4C1309A
:1020A00019F00E94A4157DC00E9492157AC00E946A
:1020B000B61577C00E94051574C0CF70002339F0A3
:1020C0008C2F0E942B158D2F0E94FD0E6AC08D2F24
:1020D0000E94040F8C2F0E944C1563C0D23F01F167
:1020E00028F4D03F41F0D13FA1F03FC0D33FF9F0F9
:1020F000D43F39F13AC0002341F0153008F04DC00B
:102100008C2F8F710E94711548C0163008F045C0A1
:10211000F7CF002339F08C2F8F710E942B153DC013
:102120000023C9F38C2F8F710E944C1536C00023F9
:1021300029F08C2F8F710E9416152FC00E94111547
:102140002CC0002349F0CF718C2F0E942B1563E027
:102150008C2F0E94191721C081E00E942E17123087
:10216000E0F082E00E942E1718C0002331F0112306
:1021700091F28D2F0E948B0E10C0112399F2D9334A
:1021800049F41FEF27EE33E0115020403040E1F7D3
:1021900000C000008D2F0E94BE0E88EF8C0D843091
:1021A00020F40E94520D0E947602DD20C9F00E94A8
:1021B000981680FD15C0F70112820E9492160E94A7
:1021C0002B15C7010E9411110E949216DF91CF9129
:1021D0001F910F91FF90EF90DF90CF900C944C15D2
:1021E000DF91CF911F910F91FF90EF90DF90CF90F3
:1021F00008950F931F93CF93DF93EC01688179814A
:102200008A810E946F168C010E94C8150E94B91421
:10221000B801CE010E940B0FDF91CF911F910F915A
:102220000895CF93DF93EC01988189812B813C81C4
:10223000232B31F08F3F31F481E09F3F19F403C02D
:1022400081E001C080E080FD19C0CE010E948F02B4
:1022500081110CC00E949C16882381F08A818823FA
:1022600069F082E0DF91CF910C942E17CE010E948D
:10227000F910CE01DF91CF910C945A02DF91CF91EA
:1022800008950E94C3160E94C6160C94E41680910D
:102290001001909111010E9434180C9441110E9478
:1022A000B3160C944711E92FE295EF704E2F50E0D2
:1022B000FA013297EE30F105B0F4EE59FF4F0C946D
:1022C0008E1F803F91F018F4883E68F40EC0843F62
:1022D00051F40BC0883E48F0813F29F406C093FBBF
:1022E000882780F9089580E0089581E008950E948C
:1022F00064160E9453110895CF93DF9300D000D04D
:102300001F92CDB7DEB70F900F900F900F900F90E8
:10231000DF91CF910895CF93DF9300D000D000D00C
:10232000CDB7DEB726960FB6F894DEBF0FBECDBF91
:10233000DF91CF9108951F93CF93DF93C0918101D7
:1023400016E080918201C81799F0D0E01C9FF0013F
:102350001D9FF00D1124ED57FE4F40815181628188
:102360007381848195810E948B112196C770E9CF7A
:10237000DF91CF911F9108954091B3015091B40125
:102380006091B5017091B6018091B7019091B8014B
:102390000C948B110F931F93CF93DF938091B8010F
:1023A00082958F7009F05DC08091B501882309F492
:1023B00058C080918101109182016091B3017091A8
:1023C000B401C091B601D091B70191E06F3F09F01F
:1023D00090E0292F06E0811709F443C0209721F0EF
:1023E0007F3F21F030E003C031E001C0322F90E0A8
:1023F00030FD34C0089FF001099FF00D1124DF016A
:10240000AD57BE4F11963C911197371327C03C91A1
:10241000361324C012963C91129731111FC01396A7
:102420004D915C9114974C1B5D0B483C5105B0F4E9
:102430008091B8018F7080618093B801E857FE4F9A
:1024400080818F708061808383EB91E00E94111105
:10245000DF91CF911F910F910C949B110196877082
:10246000BACFDF91CF911F910F9108959F92AF92B4
:10247000BF92CF92DF92EF92FF920F931F93CF9371
:10248000DF93CDB7DEB761970FB6F894DEBF0FBE0E
:10249000CDBF8C0185E0F801DE011D9601900D9203
:1024A0008A95E1F7F80140815181E2809091B30172
:1024B0006091B4012091B6013091B7012115310529
:1024C00031F06F3F31F481E09F3F19F403C081E0A8
:1024D00001C080E0F82FF1709F2E80FD46C1F80109
:1024E000A380B48083EBC82E81E0D82EF090B50194
:1024F000F501E21BF30BFF2009F4DFC08091B80166
:10250000E83CF10508F09BC0282F207F09F052C05D
:10251000561313C0491311C0FE2CE1100EC08F706A
:1025200080618093B8010E94BC11C6010E94111104
:102530008091B801F801858358C1AB2831F05F3F25
:1025400031F481E04F3F19F403C081E001C080E025
:1025500080FD03C081E08E2502C080E090E0F82F6E
:10256000F170FF2E80FF1CC08091810120918201BB
:1025700036E0821709F417C190E0389FF001399FC7
:10258000F00D1124ED57FE4F6181561306C0608196
:10259000461303C06281E61203C001968770E9CF3B
:1025A000FE2CEE2009F421C18091B8018160809356
:1025B000B8015AC0561306C0491304C0E11002C046
:1025C000F8019FC04D875E878D859E850E9477119B
:1025D000882379F1EE2069F12091B801822F82954C
:1025E0008F7090E0029774F08091B3019091B401E4
:1025F00098878F831986BB86AA862C87CE0107967B
:102600000E94111186E0F801A3EBB1E001900D9258
:102610008A95E1F70E94CA110E94BC110DC056179D
:1026200029F14D875E878D859E850E9477118111E6
:102630002CC0C8010E941111FF24F394D6C0282F8A
:10264000207F69F77A2DB98AA88A6E2D89890E9420
:102650007C1183EB91E00E94111186E0F60111924A
:102660008A95E9F70E94BC11F12CBFC04913D9CF5C
:10267000E110D7CFF8018583C8010E94111186E0CF
:10268000F60111928A95E9F7B0C0EE2091F22091FF
:10269000B801822F82958F7090E002970CF4B2CF30
:1026A0008091B3019091B4019A8389831B82BD828A
:1026B000AC822E83CE010196A3CFE83CF10508F051
:1026C00047C0FE2CEE2009F4B4CF561330C0491396
:1026D0002EC02091B80120FD21C0822F82958F70DD
:1026E000482F50E041155105C9F0F80125834F30BE
:1026F000510541F08F5F982F9295907F822F8F70B8
:10270000892B8583C8010E94111186E0F801A3EB93
:10271000B1E001900D928A95E1F742C086E0F801A0
:10272000A3EBB1E001900D928A95E1F75EC04D8771
:102730005E878D859E850E947711811163CF809180
:10274000B80181608093B801C8010E9411114DC089
:102750007A2DB98AA88A6E2D89890E947C1186E01B
:10276000F60111928A95E9F71BC0EE2009F461CFBA
:102770004D875E878D859E850E947711F82E882370
:1027800009F457CF86E0F801A3EBB1E001900D9278
:102790008A95E1F783EB91E00E94850E0E94CA11B1
:1027A0000E94BC1122C04D875E878D859E850E9448
:1027B0006416292F22952F70223028F49F7039F04B
:1027C000811105C00BC0243028F49F7049F4805E4D
:1027D000883020F0C8010E9411119F2CF92C05C0EF
:1027E000F8019581907F99F7F9CF8F2D61960FB6FB
:1027F000F894DEBF0FBECDBFDF91CF911F910F9137
:10280000FF90EF90DF90CF90BF90AF909F90089592
:1028100088EC90E008951F93CF93DF93CDB7DEB798
:102820002C970FB6F894DEBF0FBECDBF4F835887ED
:1028300069877A878B879C87CE0107960E9436121C
:102840008823D1F09F8188852A853B85232B31F011
:102850008F3F31F481E09F3F19F403C081E001C054
:1028600080E080FD47C04F81588569857A858B85DA
:102870009C850E948B113EC086E0FE013796DE01EA
:10288000119601900D928A95E1F7FF81E8856A859E
:102890007B856115710531F0EF3F31F481E0FF3F39
:1028A00019F403C081E001C080E080FD23C02091C5
:1028B000820130E0C901019687709927409181011A
:1028C00050E084179507F1F1F983EA837D836C83E7
:1028D00096E0929FD001939FB00D1124AD57BE4F4B
:1028E000FE01319601900D929A95E1F78093820155
:1028F0000E949B1116E080918101909182018917BD
:1029000071F1189FC00111248D579E4F0E943612FD
:10291000882329F1E09181011E9FF0011124ED57D8
:10292000FE4F4081518162817381848195810E9433
:102930008B118091810190E0019687709927809397
:102940008101D9CF0E944F11109282011092810112
:10295000E3EBF1E086E0DF011D928A95E9F72C9622
:102960000FB6F894DEBF0FBECDBFDF91CF911F91A0
:102970000895089508950C94BA140C94BB140E9401
:10298000BD146093E5017093E6018093E701909395
:10299000E8010C9441110C94BF140F931F93009104
:1029A000E5011091E6012091E7013091E801602BEB
:1029B000712B822B932B1F910F910C94BF140F93AB
:1029C0001F930091E5011091E6012091E7013091FC
:1029D000E80160237123822393231F910F910C94AC
:1029E000BF140F931F930091E5011091E601209110
:1029F000E7013091E80160277127822793271F9113
:102A00000F910C94BF140C94BA140E940315609398
:102A1000E1017093E2018093E3019093E4010C944F
:102A2000411160E070E0CB010C9405150F931F93EA
:102A300041E050E060E070E08A019B0104C0000FBB
:102A4000111F221F331F8A95D2F7C901B8011F91A8
:102A50000F910C9405150F931F9341E050E060E037
:102A600070E004C0440F551F661F771F8A95D2F788
:102A70008091E1019091E201A091E301B091E40124
:102A80008A019B01082B192B2A2B3B2BC901B8016A
:102A90001F910F910C9405150F931F9341E050E087
:102AA00060E070E004C0440F551F661F771F8A95D1
:102AB000D2F740955095609570958091E101909185
:102AC000E201A091E301B091E4018A019B01082396
:102AD00019232A233B23C901B8011F910F910C949C
:102AE00005150F931F9341E050E060E070E004C0D3
:102AF000440F551F661F771F8A95D2F78091E10119
:102B00009091E201A091E301B091E4018A019B015F
:102B1000082719272A273B27C901B8011F910F91C0
:102B20000C9405150F931F930091E1011091E201A0
:102B30002091E3013091E401602B712B822B932BC8
:102B40001F910F910C9405150F931F930091E101B4
:102B50001091E2012091E3013091E401602371239F
:102B6000822393231F910F910C9405150F931F93AC
:102B70000091E1011091E2012091E3013091E40123
:102B800060277127822793271F910F910C940515B9
:102B90000895292F220F920F990F890FE82FE6959C
:102BA000E695E695877051E001C0550F8A95EAF7E2
:102BB00085E0E89FF0011124E754FE4F20E030E06B
:102BC00070E04081CB01022E02C0969587950A9451
:102BD000E2F78170819584278523842781932F5F75
:102BE0003F4F2530310569F70895292F220F920FA5
:102BF000990F890F682F669566956695982F97703F
:102C000085E0689FB001112440E050E080E0FB01C6
:102C1000E40FF51FE754FE4F208130E0092E02C07B
:102C2000369527950A94E2F721703327042E01C0C8
:102C3000220F0A94EAF7822B4F5F5F4F4530510510
:102C400031F70895BF92CF92DF92EF92FF920F93E8
:102C50001F93CF93DF938C01C090E101D090E201EC
:102C6000E090E301F090E4018091E5019091E601AC
:102C7000A091E701B091E801C82AD92AEA2AFB2AE3
:102C8000CFE1D0E0D701C6010C2E04C0B695A795C0
:102C9000979587950A94D2F780FD04C0219790F705
:102CA000B12C07C0BC2EB8018C2F0E94DF02019707
:102CB000A9F38B2DDF91CF911F910F91FF90EF9092
:102CC000DF90CF90BF900895CF93DF93EC010E94E7
:102CD0002216BE010E94DF02DF91CF9108951F935B
:102CE000CF93DF93EB0190918001992321F0CB01E9
:102CF0000E94641613C0882349F0CB010E9422165B
:102D0000182F682FCE010E94C91504C0CB010E9464
:102D1000F515182FBE01812F0E94DF02DF91CF91A0
:102D20001F9108958091E901859585958595089570
:102D30008091E901877008959091E901977081E091
:102D400009F480E008958091F50108959091F501CE
:102D5000892B8093F501089580959091F501892341
:102D60008093F50108951092F50108959091F40172
:102D7000892B8093F401089580959091F401892323
:102D80008093F40108951092F40108951092F301D4
:102D900008958091EA01089508950C94CC160C943E
:102DA000CD169091EA01981721F08093EA010C94D6
:102DB000CF1608958091EA01882329F01092EA0144
:102DC00080E00C94CF160895E0911001F09111016C
:102DD0008091F5018083E0911001F09111019081C3
:102DE0008091F401892B8083E0911001F091110111
:102DF00090818091F301892B80838091EA0188235F
:102E000081F0E0911001F09111019081892B808374
:102E100080911001909111010E94EE1781110E9482
:102E2000DA1680911001909111010C945E0D0C94B2
:102E3000CC1698E0899F90011124262B2093E9015C
:102E40000E942B158091E9018595859585950C94B7
:102E500017171092E90180E00C9417172091E901EF
:102E6000809582238093E901982F977079F430E060
:102E7000482F082E000C550B2417350739F085957F
:102E8000859585950E944C150C942917089580E02E
:102E900090E00E949C1F21E08C3E9E4F09F020E0B4
:102EA000822F089582E090E00C94941F83E090E0DC
:102EB0000C94941FCF9384E090E00E94941FC82F3D
:102EC00081E290E00E94941F2C2F30E0A901582B42
:102ED000CA01CF910895CF93C92F682F84E090E065
:102EE0000E94A21F6C2F81E290E0CF910C94A21F50
:102EF000AB01BC018FE090E00C94B41FAB01BC01AE
:102F000083E190E00C94B41F60E070E0CB010C947E
:102F10007E1760E070E0CB010E9478170C94841754
:102F20006CEE7EEF80E090E00E94C01F60E082E0E7
:102F300090E00E94A21F60E083E090E00E94A21F48
:102F40001092E5011092E6011092E7011092E8015B
:102F500060E084E090E00E94A21F60E081E290E0E7
:102F60000E94A21F60E085E090E00E94A21F60E046
:102F700086E090E00E94A21F6FEF87E090E00E9441
:102F8000A21F40E050E0BA0188E090E00E94B41F28
:102F900060E08DE090E00E94A21F40E050E0BA01A6
:102FA00088E190E00E94B41F60E087E190E00E9419
:102FB000A21F40E050E0BA018CE190E00E94B41FF3
:102FC00060E080E290E00E94A21F0C9489170C94AC
:102FD0009017682F8EE090E00C94A21FFC013296AF
:102FE00097E080E0915029F021912223D9F38F5F5F
:102FF000F9CF0895662349F0FC0132960896219195
:10300000621729F0E817F907D1F780E0089581E009
:1030100008959C01FC0132969FEF80E04191461794
:1030200089F09F3F19F4411101C0982F8F5F8630BE
:10303000A9F79F3F39F0F901E90FF11D97FDFA95C6
:103040006283089508959C012A5F3F4FFC014281ED
:10305000461301C01282019682179307B9F70895AB
:103060000C9409180C942318029626E0FC01119286
:103070002A95E9F7089508950C943B180C943B1891
:10308000CF930E943E180E943A050E943C18C0E06F
:103090008C2F0E949404811104C0CF5FCA30C1F705
:1030A00001C081E0CF9108950C943B180C94541802
:1030B0000E94561880912804843049F11092F7013B
:1030C00020E488E190E00FB6F894A8958093600022
:1030D0000FBE2093600080E00E9476020E94561886
:1030E00083B7817F846083BF83B7816083BF789417
:1030F000889583B78E7F83BF0FB6F894A89580918B
:103100006000886180936000109260000FBE089597
:103110000C943B180E944F110E94520D0E9476029F
:103120000C9488181F920F920FB60F9211248F9350
:103130009F93AF93BF938091F701811113C080914A
:103140001E0490911F04A0912004B0912104419687
:10315000A11DB11D80931E0490931F04A093200411
:10316000B0932104BF91AF919F918F910F900FBEAB
:103170000F901F90189582E084BD93E095BD9AEF63
:1031800097BD80936E0008952FB7F89480911E0428
:1031900090911F04A0912004B09121042FBF0895A5
:1031A0002FB7F89460911E0470911F048091200441
:1031B000909121042FBF08959C014FB7F8948091FE
:1031C0001E0490911F04A0912004B09121044FBFD0
:1031D000821B930B089578941F920F920FB60F9253
:1031E00011248F939F93AF93BF9380911E0490916E
:1031F0001F04A0912004B09121040196A11DB11DCE
:1032000080931E0490931F04A0932004B093210484
:10321000BF91AF919F918F910F900FBE0F901F9014
:10322000189587E797E790930108809300089AE044
:1032300088E10FB6F894A895809360000FBE909334
:103240006000FFCF0E944717811102C00E94E7175C
:103250000E9452178093F6010E945A1790932304FC
:10326000809322040E945617682F70E080E090E05F
:103270000E94CB146091E1017091E2018091E30121
:103280009091E4010C940315809100020895089533
:103290000895CF93DF9321E02093E9002FEF309141
:1032A000E800215035FD06C035ED3A95F1F70000F4
:1032B0002111F5CF2091E80025FF14C0EC0140E07A
:1032C00050E068E070E00E94F01A8091E8008E778C
:1032D0008093E80088E0FE01A8EFB1E001900D9234
:1032E0008A95E1F7DF91CF910895089580912704A1
:1032F000811109C00E94811C0E94DE1C8091E200A5
:1033000084608093E2000895109227040895089540
:1033100008950C948A1842E061EC81E00C94FA1B49
:1033200080912A04833009F460C030F4813071F058
:10333000823009F499C008958A3009F485C08B3031
:1033400009F46BC0893009F0A7C020C0809129041E
:10335000813A09F0A1C08091E800877F8093E8005E
:1033600080912D0490912E04892B21F468E088EF40
:1033700091E003C060E080E090E070E00E943B1BC1
:103380008091E8008B778093E8000895809129046C
:10339000813209F081C080912D0490912E04892BF7
:1033A00009F07AC08091E800877F8093E8008091DF
:1033B000E80082FD05C0809128048111F8CF6CC01F
:1033C0002091F3008091F20090E0922B029729F473
:1033D0008091F1008B7F813021F48091F100809306
:1033E00000028091E8008B7753C080912904813AD4
:1033F00009F052C080912D0490912E04892B09F080
:103400004BC08091E800877F8093E8008091E800BE
:1034100080FFFCCF80911C0136C08091290481324D
:10342000D9F580912D0490912E04892BA9F58091D6
:10343000E800877F8093E8000E942F1C80912B0476
:1034400080931C010C944F1180912904813221F545
:103450008091E800877F8093E8000E942F1C809174
:103460002C0480930102089580912904813AA1F4EB
:103470008091E800877F8093E8008091E80080FFDA
:10348000FCCF809101028093F1008091E8008E775B
:103490008093E8000C942F1C089584B7877F84BF25
:1034A0000FB6F894A89580916000886180936000C1
:1034B000109260000FBE90E080E80FB6F894809301
:1034C0006100909361000FBE0E94A50D0E94811CB7
:1034D0000E94DE1C8091E20084608093E200789478
:1034E0000E94731F0E94AD0D82E191E00E944D0D7C
:1034F00080912804853069F40E9458188091260430
:103500008823B1F30E944018882391F30E94DA1AAD
:10351000EFCF0E94B80DECCF0C948E1A292F3327D1
:1035200023303105C1F058F42130310579F02230D3
:103530003105C1F582E290E024E233E037C0213268
:10354000310511F12232310531F12CC082E190E0D8
:1035500026E433E02BC099278130910561F040F0DB
:103560008230910559F00397E9F4E8EFF2E008C0E2
:10357000E0E2F3E005C0EEE0F3E002C0EEEFF2E0DF
:10358000849190E09F0112C0672B61F489E090E084
:1035900026E333E00BC0672B29F480E490E028E5B4
:1035A00033E004C080E090E020E030E0FA013183B5
:1035B0002083089580E189BD82E189BD09B400FEC0
:1035C000FDCF8091D8008F7D8093D8008091E0005E
:1035D00082608093E0008091E00081FDFCCF08953F
:1035E000CF92DF92EF92FF920F931F93CF93DF93CF
:1035F000EC018B017A010E944E1C811133C0E11451
:10360000F10439F0F70180819181081B190BC80F73
:10361000D91FC12CD12C0115110519F18091E80099
:1036200085FD16C08091E8008E778093E800E11454
:10363000F10449F0F70180819181C80ED91ED18231
:10364000C08285E00FC00E944E1C882321F30AC06F
:1036500089918093F10001501109FFEFCF1ADF0A21
:10366000DACF80E0DF91CF911F910F91FF90EF9023
:10367000DF90CF90089520912F04309130042617C9
:10368000370748F06115710539F42091E8002E776D
:103690002093E80001C0B901FC0120E0611571052B
:1036A00079F1809128048823F1F18530F1F180913E
:1036B000E80083FD3CC08091E80082FD2EC080912F
:1036C000E80080FFEBCF2091F3008091F20090E0C2
:1036D000922B6115710551F08830910538F42191D4
:1036E0002093F100615071090196F3CF21E0089712
:1036F00009F020E08091E8008E778093E800CECF3B
:103700002111CFCF0AC080912804882361F0853031
:1037100061F08091E80083FD0AC08091E80082FF9B
:10372000F2CF80E0089582E0089583E0089581E07B
:10373000089520912F04309130042617370748F060
:103740006115710539F42091E8002E772093E80087
:1037500001C0B901FC0120E06115710591F1809172
:103760002804882309F440C0853009F43FC08091C3
:10377000E80083FD3DC08091E80082FD2FC080916C
:10378000E80080FFE9CF2091F3008091F20090E003
:10379000922B6115710559F08830910540F4249100
:1037A0002093F1003196615071090196F2CF21E02A
:1037B000089709F020E08091E8008E778093E80078
:1037C000CBCF2111CCCF0AC080912804882361F08F
:1037D000853061F08091E80083FD0AC08091E800A7
:1037E00082FFF2CF80E0089582E0089583E008959B
:1037F00081E00895982F973068F59093E900981725
:1038000039F07091EC002091ED005091F00003C070
:10381000242F762F50E021FD02C09F5FECCF309126
:10382000EB003E7F3093EB003091ED003D7F309315
:10383000ED003091EB0031603093EB007093EC00C1
:103840002093ED005093F0002091EE0027FDE5CF8E
:1038500080E008958F708093E90081E00895809161
:10386000290487FF11C08091E80082FD05C0809186
:1038700028048111F8CF11C08091E8008B770BC02C
:1038800080912804882349F08091E80080FFF8CFD8
:103890008091E8008E778093E80008952091E400FD
:1038A0003091E50095E64091EC00842F817040FF57
:1038B00023C08091E80080FD1DC0809128048823EA
:1038C00099F0853099F08091EB0085FD11C0409111
:1038D000E4005091E5002417350729F3915011F0C9
:1038E0009A01E1CF84E0089582E0089583E008958D
:1038F00081E0089580E008954091E80042FFDDCF27
:1039000008950E94EF1C0E94F71CE0EEF0E0808119
:1039100081608083E8EDF0E080818F77808319BC3F
:10392000A7EDB0E08C918E7F8C9380818F7E808319
:103930001092270408950F931F93CF93DF930E9453
:10394000EF1C0E94F71CC8EDD0E088818F77888338
:1039500088818068888388818F7D888319BC1092D4
:10396000280410922404109226041092250400EEDC
:1039700010E0F80180818B7F80838881816088835B
:1039800042E060E080E00E94FA1BE1EEF0E080811E
:103990008E7F8083E2EEF0E0808181608083808191
:1039A00088608083F80180818E7F80838881806138
:1039B0008883DF91CF911F910F910895E8EDF0E09A
:1039C00080818F7E8083E7EDF0E08081816080835D
:1039D00084E082BF81E0809327040C949B1CE8ED77
:1039E000F0E080818E7F80831092E2000895109233
:1039F000DA001092E10008951F920F920FB60F9215
:103A000011242F933F934F935F936F937F938F93E3
:103A10009F93AF93BF93EF93FF938091E10082FF59
:103A20000BC08091E20082FF07C08091E1008B7F94
:103A30008093E1000E94721F8091DA0080FF1FC016
:103A40008091D80080FF1BC08091DA008E7F809328
:103A5000DA008091D90080FF0DC080E189BD82E14C
:103A600089BD09B400FEFDCF81E0809328040E9447
:103A7000761905C019BC109228040E9484198091FF
:103A8000E10080FF19C08091E20080FF15C08091A5
:103A9000E2008E7F8093E2008091E200806180935B
:103AA000E2008091D80080628093D80019BC85E044
:103AB000809328040E9488198091E10084FF30C01F
:103AC0008091E20084FF2CC080E189BD82E189BD44
:103AD00009B400FEFDCF8091D8008F7D8093D8007F
:103AE0008091E1008F7E8093E1008091E2008F7EE3
:103AF0008093E2008091E20081608093E2008091F7
:103B00002404882311F084E007C08091E30087FD3E
:103B100002C081E001C083E0809328040E948919DB
:103B20008091E10083FF29C08091E20083FF25C0DE
:103B30008091E100877F8093E10082E080932804F8
:103B4000109224048091E1008E7F8093E1008091A7
:103B5000E2008E7F8093E2008091E200806180939A
:103B6000E20042E060E080E00E94FA1B8091F000F9
:103B700088608093F0000E948719FF91EF91BF91B8
:103B8000AF919F918F917F916F915F914F913F91F5
:103B90002F910F900FBE0F901F9018951F920F92AC
:103BA0000FB60F9211242F933F934F935F936F9310
:103BB0007F938F939F93AF93BF93CF93DF93EF93B5
:103BC000FF93C091E900CF708091EC00D82FD170A5
:103BD00080FDD0E81092E9008091F000877F80930B
:103BE000F00078940E94121E1092E9008091F0007B
:103BF00088608093F000CD2BCF70C093E900FF91D7
:103C0000EF91DF91CF91BF91AF919F918F917F9174
:103C10006F915F914F913F912F910F900FBE0F9039
:103C20001F9018951F93CF93DF93CDB7DEB7AA9758
:103C30000FB6F894DEBF0FBECDBFE9E2F4E080918D
:103C4000F100819324E0E133F207C9F70E94901953
:103C50008091E80083FF2EC18091290490912A046D
:103C6000492F50E04A30510508F024C1FA01E059CB
:103C7000FF4F0C948E1F803821F0823809F01AC152
:103C800008C08091250490912604992389F08260D0
:103C90000FC080912D048F70873008F00BC1809386
:103CA000E9008091EB0085FB882780F91092E900FC
:103CB0009091E800977F9093E8008093F100109234
:103CC000F100D1C0282F2D7F09F0F4C0882319F00E
:103CD000823061F0EFC080912B04813009F0EAC09E
:103CE000933009F080E0809326042EC080912B044D
:103CF00081112AC080912D048F702FEF280F26305C
:103D000008F0D8C08093E9002091EB0020FF1CC090
:103D1000933021F48091EB00806214C09091EB000D
:103D200090619093EB0021E030E0A90102C0440FC4
:103D3000551F8A95E2F74093EA001092EA008091BD
:103D4000EB0088608093EB001092E9008091E8001E
:103D5000877F8093E8000E942F1CACC08111AAC00D
:103D600010912B041F778091E3008078812B809342
:103D7000E3008091E800877F8093E8000E942F1C79
:103D80008091E80080FFFCCF8091E3008068809301
:103D9000E300111102C082E001C083E08093280497
:103DA00089C08058823008F085C080912B049091A2
:103DB0002C048C3D53E0950779F583E08A838AE2F1
:103DC00089834FB7F894DE01139620E03EE051E27C
:103DD000E32FF0E050935700E49120FF03C0E295F9
:103DE000EF703F5FEF708E2F90E0EA3010F0C796D3
:103DF00001C0C0968D939D932F5F243149F74FBF2B
:103E00008091E800877F8093E8006AE270E0CE014D
:103E100001960E943B1B16C060912D0470912E04E8
:103E2000AE014F5F5F4F0E948C1ABC01892B09F4D1
:103E300041C09091E800977F9093E80089819A8132
:103E40000E94991B8091E8008B778093E80032C034
:103E5000803881F58091E800877F8093E800809129
:103E600024048093F1008091E8008E7772CF811155
:103E700021C080912B0490912C0499270297D4F4AF
:103E80008091E800877F8093E80080912B048093E5
:103E900024040E942F1C80912404811106C080916B
:103EA000E30087FD02C081E001C084E08093280424
:103EB0000E948B198091E80083FF0AC08091E8007E
:103EC000877F8093E8008091EB0080628093EB0015
:103ED000AA960FB6F894DEBF0FBECDBFDF91CF918B
:103EE0001F9108950895CF93809128048823A1F00D
:103EF000C091E900CF709091EC00892F817090FD06
:103F000080E8C82B1092E9008091E80083FD0E94B0
:103F1000121ECF70C093E900CF910895EE0FFF1FDE
:103F20000590F491E02D0994F999FECF92BD81BDE1
:103F3000F89A992780B50895A8E1B0E042E050E0F2
:103F40000C94C81F262FF999FECF92BD81BDF89A17
:103F5000019700B4021639F01FBA20BD0FB6F894CD
:103F6000FA9AF99A0FBE08950396272F0E94A31F6D
:103F70000E94A21F252F0E94A31F242F0C94A31F71
:103F80000196272F0E94A31F0C94A21FDC01CB01D6
:103F9000FC01F999FECF06C0F2BDE1BDF89A319659
:103FA00000B40D9241505040B8F70895F894FFCFF7
:103FB000013B01003C01053C010021007F22000380
:103FC000EB014419491947197519481901F6F731D8
:103FD0003332366697C63435000000000000081002
:063FE00018181008000093
:00000001FF
